{
  "contractName": "Lottery",
  "abi": [
    {
      "inputs": [],
      "stateMutability": "nonpayable",
      "type": "constructor"
    },
    {
      "inputs": [
        {
          "internalType": "uint256",
          "name": "",
          "type": "uint256"
        }
      ],
      "name": "lotteryHistory",
      "outputs": [
        {
          "internalType": "address payable",
          "name": "",
          "type": "address"
        }
      ],
      "stateMutability": "view",
      "type": "function"
    },
    {
      "inputs": [],
      "name": "lotteryId",
      "outputs": [
        {
          "internalType": "uint256",
          "name": "",
          "type": "uint256"
        }
      ],
      "stateMutability": "view",
      "type": "function"
    },
    {
      "inputs": [],
      "name": "manager",
      "outputs": [
        {
          "internalType": "address",
          "name": "",
          "type": "address"
        }
      ],
      "stateMutability": "view",
      "type": "function"
    },
    {
      "inputs": [
        {
          "internalType": "uint256",
          "name": "",
          "type": "uint256"
        }
      ],
      "name": "players",
      "outputs": [
        {
          "internalType": "address",
          "name": "",
          "type": "address"
        }
      ],
      "stateMutability": "view",
      "type": "function"
    },
    {
      "inputs": [],
      "name": "winner",
      "outputs": [
        {
          "internalType": "address",
          "name": "",
          "type": "address"
        }
      ],
      "stateMutability": "view",
      "type": "function"
    },
    {
      "inputs": [],
      "name": "winnings",
      "outputs": [
        {
          "internalType": "uint256",
          "name": "",
          "type": "uint256"
        }
      ],
      "stateMutability": "view",
      "type": "function"
    },
    {
      "inputs": [],
      "name": "getPlayersCount",
      "outputs": [
        {
          "internalType": "uint256",
          "name": "",
          "type": "uint256"
        }
      ],
      "stateMutability": "view",
      "type": "function"
    },
    {
      "inputs": [
        {
          "internalType": "uint256",
          "name": "index",
          "type": "uint256"
        }
      ],
      "name": "getPlayerByIndex",
      "outputs": [
        {
          "internalType": "address",
          "name": "",
          "type": "address"
        }
      ],
      "stateMutability": "view",
      "type": "function"
    },
    {
      "inputs": [],
      "name": "getLatestWinner",
      "outputs": [
        {
          "internalType": "address payable",
          "name": "",
          "type": "address"
        }
      ],
      "stateMutability": "view",
      "type": "function"
    },
    {
      "inputs": [],
      "name": "getLatestWinnerInfo",
      "outputs": [
        {
          "internalType": "address payable",
          "name": "",
          "type": "address"
        },
        {
          "internalType": "uint256",
          "name": "",
          "type": "uint256"
        }
      ],
      "stateMutability": "view",
      "type": "function"
    },
    {
      "inputs": [],
      "name": "enter",
      "outputs": [],
      "stateMutability": "payable",
      "type": "function"
    },
    {
      "inputs": [],
      "name": "pickWinner",
      "outputs": [],
      "stateMutability": "nonpayable",
      "type": "function"
    },
    {
      "inputs": [],
      "name": "getPlayers",
      "outputs": [
        {
          "internalType": "address[]",
          "name": "",
          "type": "address[]"
        }
      ],
      "stateMutability": "view",
      "type": "function"
    }
  ],
  "bytecode": "0x608060405234801561001057600080fd5b50336000806101000a81548173ffffffffffffffffffffffffffffffffffffffff021916908373ffffffffffffffffffffffffffffffffffffffff1602179055506001600481905550611219806100686000396000f3fe6080604052600436106100c25760003560e01c8063a76594bf1161007f578063e580f47b11610059578063e580f47b14610249578063e97dcb6214610274578063f48f0d8d1461027e578063f71d96cb146102bb576100c2565b8063a76594bf146101c8578063d134474c146101f3578063dfbf53ae1461021e576100c2565b8063481c6a75146100c75780634fdd3b64146100f25780635d495aea1461011d5780636d6fe2301461013457806386956126146101715780638b5b9ccc1461019d575b600080fd5b3480156100d357600080fd5b506100dc6102f8565b6040516100e99190610de5565b60405180910390f35b3480156100fe57600080fd5b5061010761031c565b6040516101149190610e00565b60405180910390f35b34801561012957600080fd5b50610132610365565b005b34801561014057600080fd5b5061015b60048036038101906101569190610b08565b610702565b6040516101689190610e00565b60405180910390f35b34801561017d57600080fd5b50610186610735565b604051610194929190610e1b565b60405180910390f35b3480156101a957600080fd5b506101b26107a7565b6040516101bf9190610e44565b60405180910390f35b3480156101d457600080fd5b506101dd610835565b6040516101ea9190610ee6565b60405180910390f35b3480156101ff57600080fd5b50610208610842565b6040516102159190610ee6565b60405180910390f35b34801561022a57600080fd5b50610233610848565b6040516102409190610de5565b60405180910390f35b34801561025557600080fd5b5061025e61086e565b60405161026b9190610ee6565b60405180910390f35b61027c610874565b005b34801561028a57600080fd5b506102a560048036038101906102a09190610b08565b610922565b6040516102b29190610de5565b60405180910390f35b3480156102c757600080fd5b506102e260048036038101906102dd9190610b08565b6109d7565b6040516102ef9190610de5565b60405180910390f35b60008054906101000a900473ffffffffffffffffffffffffffffffffffffffff1681565b6000600560006001600454610331919061100e565b815260200190815260200160002060009054906101000a900473ffffffffffffffffffffffffffffffffffffffff16905090565b60008054906101000a900473ffffffffffffffffffffffffffffffffffffffff1673ffffffffffffffffffffffffffffffffffffffff163373ffffffffffffffffffffffffffffffffffffffff16146103f3576040517f08c379a00000000000000000000000000000000000000000000000000000000081526004016103ea90610e66565b60405180910390fd5b60006001805490501161043b576040517f08c379a000000000000000000000000000000000000000000000000000000000815260040161043290610e86565b60405180910390fd5b600060018054905061044b610a16565b610455919061111d565b905060018181548110610491577f4e487b7100000000000000000000000000000000000000000000000000000000600052603260045260246000fd5b9060005260206000200160009054906101000a900473ffffffffffffffffffffffffffffffffffffffff16600360006101000a81548173ffffffffffffffffffffffffffffffffffffffff021916908373ffffffffffffffffffffffffffffffffffffffff1602179055506000600360009054906101000a900473ffffffffffffffffffffffffffffffffffffffff1690508073ffffffffffffffffffffffffffffffffffffffff166108fc606460614761054c9190610fb4565b6105569190610f83565b9081150290604051600060405180830381858888f19350505050158015610581573d6000803e3d6000fd5b5060008054906101000a900473ffffffffffffffffffffffffffffffffffffffff1673ffffffffffffffffffffffffffffffffffffffff166108fc60646061476105cb9190610fb4565b6105d59190610f83565b476105e0919061100e565b9081150290604051600060405180830381858888f1935050505015801561060b573d6000803e3d6000fd5b508060056000600454815260200190815260200160002060006101000a81548173ffffffffffffffffffffffffffffffffffffffff021916908373ffffffffffffffffffffffffffffffffffffffff16021790555060046000815480929190610673906110ca565b9190505550600067ffffffffffffffff8111156106b9577f4e487b7100000000000000000000000000000000000000000000000000000000600052604160045260246000fd5b6040519080825280602002602001820160405280156106e75781602001602082028036833780820191505090505b50600190805190602001906106fd929190610a4c565b505050565b60056020528060005260406000206000915054906101000a900473ffffffffffffffffffffffffffffffffffffffff1681565b600080600060056000600160045461074d919061100e565b815260200190815260200160002060009054906101000a900473ffffffffffffffffffffffffffffffffffffffff1690506000606460614761078f9190610fb4565b6107999190610f83565b905081819350935050509091565b6060600180548060200260200160405190810160405280929190818152602001828054801561082b57602002820191906000526020600020905b8160009054906101000a900473ffffffffffffffffffffffffffffffffffffffff1673ffffffffffffffffffffffffffffffffffffffff16815260200190600101908083116107e1575b5050505050905090565b6000600180549050905090565b60025481565b600360009054906101000a900473ffffffffffffffffffffffffffffffffffffffff1681565b60045481565b662386f26fc1000034116108bd576040517f08c379a00000000000000000000000000000000000000000000000000000000081526004016108b490610ea6565b60405180910390fd5b6001339080600181540180825580915050600190039060005260206000200160009091909190916101000a81548173ffffffffffffffffffffffffffffffffffffffff021916908373ffffffffffffffffffffffffffffffffffffffff160217905550565b6000600180549050821061096b576040517f08c379a000000000000000000000000000000000000000000000000000000000815260040161096290610ec6565b60405180910390fd5b600182815481106109a5577f4e487b7100000000000000000000000000000000000000000000000000000000600052603260045260246000fd5b9060005260206000200160009054906101000a900473ffffffffffffffffffffffffffffffffffffffff169050919050565b600181815481106109e757600080fd5b906000526020600020016000915054906101000a900473ffffffffffffffffffffffffffffffffffffffff1681565b600044426001604051602001610a2e93929190610dac565b6040516020818303038152906040528051906020012060001c905090565b828054828255906000526020600020908101928215610ac5579160200282015b82811115610ac45782518260006101000a81548173ffffffffffffffffffffffffffffffffffffffff021916908373ffffffffffffffffffffffffffffffffffffffff16021790555091602001919060010190610a6c565b5b509050610ad29190610ad6565b5090565b5b80821115610aef576000816000905550600101610ad7565b5090565b600081359050610b02816111cc565b92915050565b600060208284031215610b1a57600080fd5b6000610b2884828501610af3565b91505092915050565b6000610b3d8383610b70565b60208301905092915050565b6000610b558383610b8e565b60208301905092915050565b610b6a81611074565b82525050565b610b7981611062565b82525050565b610b8881611062565b82525050565b610b9781611062565b82525050565b6000610ba882610f26565b610bb28185610f56565b9350610bbd83610f01565b8060005b83811015610bee578151610bd58882610b31565b9750610be083610f3c565b925050600181019050610bc1565b5085935050505092915050565b6000610c0682610f31565b610c108185610f67565b9350610c1b83610f11565b8060005b83811015610c5357610c30826111ac565b610c3a8882610b49565b9750610c4583610f49565b925050600181019050610c1f565b5085935050505092915050565b6000610c6d602783610f72565b91507f4f6e6c7920746865206d616e616765722063616e2063616c6c2074686973206660008301527f756e6374696f6e000000000000000000000000000000000000000000000000006020830152604082019050919050565b6000610cd3601e83610f72565b91507f4e6f207061727469636970616e747320696e20746865206c6f747465727900006000830152602082019050919050565b6000610d13601f83610f72565b91507f4d696e696d756d20656e7472792066656520697320302e3031206574686572006000830152602082019050919050565b6000610d53601383610f72565b91507f496e646578206f7574206f6620626f756e6473000000000000000000000000006000830152602082019050919050565b610d8f816110a6565b82525050565b610da6610da1826110a6565b611113565b82525050565b6000610db88286610d95565b602082019150610dc88285610d95565b602082019150610dd88284610bfb565b9150819050949350505050565b6000602082019050610dfa6000830184610b7f565b92915050565b6000602082019050610e156000830184610b61565b92915050565b6000604082019050610e306000830185610b61565b610e3d6020830184610d86565b9392505050565b60006020820190508181036000830152610e5e8184610b9d565b905092915050565b60006020820190508181036000830152610e7f81610c60565b9050919050565b60006020820190508181036000830152610e9f81610cc6565b9050919050565b60006020820190508181036000830152610ebf81610d06565b9050919050565b60006020820190508181036000830152610edf81610d46565b9050919050565b6000602082019050610efb6000830184610d86565b92915050565b6000819050602082019050919050565b60008190508160005260206000209050919050565b600081519050919050565b600081549050919050565b6000602082019050919050565b6000600182019050919050565b600082825260208201905092915050565b600081905092915050565b600082825260208201905092915050565b6000610f8e826110a6565b9150610f99836110a6565b925082610fa957610fa861117d565b5b828204905092915050565b6000610fbf826110a6565b9150610fca836110a6565b9250817fffffffffffffffffffffffffffffffffffffffffffffffffffffffffffffffff04831182151516156110035761100261114e565b5b828202905092915050565b6000611019826110a6565b9150611024836110a6565b9250828210156110375761103661114e565b5b828203905092915050565b600073ffffffffffffffffffffffffffffffffffffffff82169050919050565b600061106d82611086565b9050919050565b600061107f82611086565b9050919050565b600073ffffffffffffffffffffffffffffffffffffffff82169050919050565b6000819050919050565b60006110c36110be836111bf565b611042565b9050919050565b60006110d5826110a6565b91507fffffffffffffffffffffffffffffffffffffffffffffffffffffffffffffffff8214156111085761110761114e565b5b600182019050919050565b6000819050919050565b6000611128826110a6565b9150611133836110a6565b9250826111435761114261117d565b5b828206905092915050565b7f4e487b7100000000000000000000000000000000000000000000000000000000600052601160045260246000fd5b7f4e487b7100000000000000000000000000000000000000000000000000000000600052601260045260246000fd5b60006111b882546110b0565b9050919050565b60008160001c9050919050565b6111d5816110a6565b81146111e057600080fd5b5056fea264697066735822122013a13fc592501bc558532f7de8e13a42fc1b6307762ce16dad1795996f3cb9d964736f6c63430008000033",
  "immutableReferences": {},
  "source": "// SPDX-License-Identifier: MIT\r\npragma solidity ^0.8.0;\r\n\r\ncontract Lottery {\r\n    address public manager;\r\n    address[] public players;\r\n    uint public winnings;\r\n    address public winner;\r\n    uint public lotteryId;\r\n    mapping(uint => address payable) public lotteryHistory;\r\n\r\n    constructor() {\r\n        manager = msg.sender;\r\n        lotteryId = 1;\r\n    }\r\n\r\n    function getPlayersCount() public view returns (uint) {\r\n        return players.length;\r\n    }\r\n\r\n    function getPlayerByIndex(uint index) public view returns (address) {\r\n        require(index < players.length, \"Index out of bounds\");\r\n        return players[index];\r\n    }\r\n\r\n    function getLatestWinner() public view returns (address payable) {\r\n        return lotteryHistory[lotteryId - 1];\r\n    }\r\n\r\n    function getLatestWinnerInfo() public view returns (address payable, uint){ \r\n       address payable latestWinner = lotteryHistory[lotteryId - 1];\r\n        uint latestWinnings = address(this).balance * 97 / 100; // Adjust this based on your contract's logic\r\n\r\n        return (latestWinner, latestWinnings);\r\n    }\r\n    \r\n\r\n    function enter() public payable {\r\n        require(msg.value > 0.01 ether, \"Minimum entry fee is 0.01 ether\");\r\n       \tplayers.push(payable(msg.sender));\r\n    }\r\n\r\n    function random() internal view returns (uint) {\r\n        return uint(keccak256(abi.encodePacked(block.difficulty, block.timestamp, players)));\r\n    }\r\n\r\n    function pickWinner() public {\r\n        require(msg.sender == manager, \"Only the manager can call this function\");\r\n        require(players.length > 0, \"No participants in the lottery\");\r\n        uint index = random() % players.length;\r\n        winner = players[index];\r\n        address payable winnerAddress = payable(winner);\r\n        winnerAddress.transfer(address(this).balance * 97/100);\r\n        payable(manager).transfer(address(this).balance - address(this).balance * 97 / 100); // Remaining balance for the manager\r\n        lotteryHistory[lotteryId] = winnerAddress;\r\n        lotteryId++;\r\n\r\n        players = new address[](0); // Reset the players array for the next round\r\n    }\r\n\r\n    function getPlayers() public view returns (address[] memory) {\r\n    return players;\r\n    }\r\n}\r\n        \r\n",
  "sourcePath": "C:\\Users\\admin\\Downloads\\Y17Dec\\noshigachav3.io\\contracts\\noshigachav3.sol",
  "compiler": {
    "name": "solc",
    "version": "0.8.0+commit.c7dfd78e.Emscripten.clang"
  },
  "schemaVersion": "3.4.16",
  "updatedAt": "2023-12-18T13:55:41.388Z",
  "devdoc": {
    "kind": "dev",
    "methods": {},
    "version": 1
  },
  "userdoc": {
    "kind": "user",
    "methods": {},
    "version": 1
  }
}